:1000000010C015C014C013C012C011C010C00FC062
:100010000EC00DC00CC00BC00AC009C008C007C08C
:1000200006C011241FBECFEDCDBF02D09BC1E8CFCB
:10003000CF93DF93CDB7DD27CE50CDBF8AE390E0DD
:100040002AE330E0F90120812160FC0120838BE369
:1000500090E02BE330E0F901308121E02327FC011F
:10006000208380E090E0AAE7B4E489839A83AB839D
:10007000BC8320E030E04AE753E469817A818B81D8
:100080009C81DDD0DC01CB018D839E83AF83B8875B
:1000900020E030E040E85FE36D817E818F819885CC
:1000A0004DD088232CF481E090E09A8789873BC06B
:1000B00020E03FEF4FE757E46D817E818F81988587
:1000C000BAD018163CF520E030E040E251E46981F6
:1000D0007A818B819C81B3D0DC01CB01BC01CD0145
:1000E00031D0DC01CB019A8789870FC089E190E08C
:1000F0009C878B878B859C850197F1F79C878B87E5
:1001000089859A8501979A87898789859A85892B18
:1001100069F713C06D817E818F81988513D0DC01D2
:10012000CB019A87898789859A859E878D878D855A
:100130009E850197F1F79E878D8789CF2FD008F490
:1001400081E0089557D088F09F5790F0B92F9927F4
:10015000B751A0F0D1F0660F771F881F991F1AF0D2
:10016000BA95C9F712C0B13081F05ED0B1E0089500
:100170005BC0672F782F8827B85F39F0B93FCCF381
:10018000869577956795B395D9F73EF490958095C8
:10019000709561957F4F8F4F9F4F0895990F00087D
:1001A000550FAA0BE0E8FEEF16161706E807F90749
:1001B000C0F012161306E407F50798F0621B730BE4
:1001C000840B950B39F40A2661F0232B242B252B65
:1001D00021F408950A2609F4A140A6958FEF811D08
:1001E000811D089557FD9058440F551F59F05F3FEA
:1001F00071F04795880F97FB991F61F09F3F79F049
:1002000087950895121613061406551FF2CF4695CA
:10021000F1DF08C0161617061806991FF1CF86954C
:100220007105610508940895E894BB276627772730
:10023000CB0197F90895B2DF08F48FEF08950AD043
:1002400080C071D028F076D018F0952309F062C0F4
:1002500067C0EBCFC7DFA8F39923D9F35523C9F3C0
:10026000950F50E0551FAA27EE27FF27BB27002434
:100270000894679520F4E20FF31FB41F0A1E220FA3
:10028000331F441FAA1F6695A9F7779530F4F30F23
:10029000B41F0A1E121E08F46395330F441FAA1FD1
:1002A000221F769599F7879520F4B40F0A1E121E27
:1002B000631F440FAA1F221F331F8695A9F7862F9D
:1002C000712D602D11249F5750408AF0E1F0882352
:1002D0004AF0EE0FFF1FBB1F661F771F881F91504C
:1002E0005040A9F79E3F510570F014C09ECF5F3F6C
:1002F000ECF3983EDCF3869577956795B795F7957F
:10030000E7959F5FC1F7FE2B880F911D9695879506
:1003100097F9089597F99F6780E870E060E0089585
:100320009FEF80EC089500240A941616170618060D
:100330000906089500240A941216130614060506E9
:100340000895092E0394000C11F4882352F0BB0F7A
:1003500040F4BF2B11F460FF04C06F5F7F4F8F4FDD
:080360009F4F0895F894FFCFB0
:00000001FF
